:020000040800F2
:10000000C048002081020008C3210008E91E000842
:10001000C121000819060008F127000800000000AF
:10002000000000000000000000000000C101000806
:1000300035060008000000001D020008DD21000850
:100040009B0200089B0200089B0200089B0200081C
:100050009B0200089B0200089B0200089B0200080C
:100060009B0200089B0200089B0200089B020008FC
:100070009B0200089B0200089B0200089B020008EC
:100080009B0200089B0200089B020008290600084A
:100090001D0600089B0200089B0200089B02000846
:1000A0009B020008AD2200089B0200089B0200088A
:1000B0009B0200089B0200089B0200089B020008AC
:1000C0009B0200089B0200089B0200089B0200089C
:1000D0009B020008D92700089B0200089B02000829
:1000E0009B0200089B0200089B0200089B0200087C
:1000F0009B0200089B0200089B0200089B0200086C
:100100009B0200089B0200089B0200089B0200085B
:100110009B0200089B0200089B0200089B0200084B
:100120009B0200089B0200089B0200089B0200083B
:100130009B0200089B0200089B0200089B0200082B
:100140009B0200089B0200089B0200089B0200081B
:100150009B0200089B0200089B020008E52700089C
:100160009B0200089B0200089B0200089B020008FB
:100170009B0200089B0200089B0200080000000090
:100180009B0200089B0200089B0200089B020008DB
:100190009B0200089B0200089B0200089B020008CB
:1001A00000000000000000009B020008DFF80CD0F7
:1001B00000F020FA0048004795280008C0480020B9
:1001C0002C4B19680868B0E8F04F80F30988BFF33A
:1001D0006F8F4FF0000080F311887047000000001F
:1001E00008480068006880F308884FF0000080F33A
:1001F000148862B661B6BFF34F8FBFF36F8F00DF15
:1002000000BF00BF08ED00E0DFF80C00016841F41A
:1002100070010160704700BF88ED00E0EFF30980D6
:10022000BFF36F8F134B1A681EF0100F08BF20ED3D
:10023000108A20E9F04F106009B44FF0500080F3AD
:100240001188BFF34F8FBFF36F8F03F0C5F94FF0E5
:10025000000080F3118809BC19680868B0E8F04F05
:100260001EF0100F08BFB0EC108A80F30988BFF3AE
:100270006F8F704720000020EFF30580704700006B
:100280000648804706480047FEE7FEE7FEE7FEE730
:10029000FEE7FEE7FEE7FEE7FEE7FEE79122000845
:1002A000AD0100082DE9F05F0546002092469B460F
:1002B00088460646814640241BE02846414647467C
:1002C000224600F0F2F853465A46C01A914110D324
:1002D00011461846224600F0D9F82D1A67EB01089E
:1002E0004F4622460120002100F0D0F817EB00090C
:1002F0004E41201EA4F10104DFDC484631462A4667
:100300004346BDE8F09F40EA01039B0703D009E0A4
:1003100008C9121F08C0042AFAD203E011F8013BF1
:1003200000F8013B521EF9D27047D2B201E000F84A
:10033000012B491EFBD270470022F6E710B5134689
:100340000A4604461946FFF7F0FF204610BD2DE986
:10035000FE4F81EA030404F0004421F000410094C0
:100360004FF0000B23F0004350EA01045ED052EA44
:1003700003045BD0C3F30A54C1F30A552C44A4F21E
:10038000F3340194A0FB0254C1F3130141F4801132
:10039000C3F3130343F4801301FB024400FB034E39
:1003A000840A970A44EA815447EA8357A4FB076802
:1003B00002958D0A05FB07854FEA932C04FB0C542C
:1003C0002705029D4FEA065847EA1637B5EB0805A0
:1003D0006EEB070C870E920E47EA811742EA8312F2
:1003E000A7FB0201B6EB0B0164EB00042B0D43EA03
:1003F0000C335E1844EB1C50DA465146E7FB020111
:10040000C5F313044FEA0B3343EA14534FEA0432A3
:10041000019C43EA0603A4F10C040294009CCDE97C
:1004200000B400F098F803B0BDE8F08F002001465A
:10043000F9E70EB5C10F80EAE0700844CA07002151
:1004400040F233438DE80E000A460B4600F083F875
:1004500003B000BD01F0004330B421F0004150EA88
:10046000010206D00A0DA2F56072C1F31301002A41
:1004700002DC30BC00207047440F44EAC104C100D4
:10048000E01830BC00EBC25000F01FB8202A04DB9B
:10049000203A00FA02F1002070479140C2F1200397
:1004A00020FA03F3194390407047202A04DB203AD6
:1004B00021FA02F00021704721FA02F3D040C2F184
:1004C000200291400843194670470029A8BF704791
:1004D000401C490008BF20F00100704710B4B0FA7A
:1004E00080FC00FA0CF050EA010404BF10BC704715
:1004F00049B1CCF1200421FA04F411FA0CF118BF2F
:10050000012121430843A3EB0C01CB1D4FEA0061FD
:100510004FEA102042BF002010BC704700EBC350D0
:1005200010440029A4BF10BC7047401C490008BFFC
:1005300020F0010010BC704710B5141E73F10004C8
:1005400008DA401C41F1000192185B411A4301D1C5
:1005500020F0010010BD2DE9F04D92469B4611B1EF
:10056000B1FA81F202E0B0FA80F220329046FFF751
:100570008DFF04460F4640EA0A0041EA0B0153464C
:100580005A46084313D0114653EA010019D0C8F166
:1005900040025046FFF789FF05460E465046594631
:1005A0004246FFF773FF084305D0012004E02046D0
:1005B0003946BDE8F08D0020054346EAE0762C433D
:1005C00037430A986305E40AA0EB08000022FD0AFD
:1005D00044EA47540A3002D500200146E9E7010504
:1005E00010196941DDE9084500196941BDE8F04D80
:1005F000A2E70000064C074D06E0E06840F001036A
:1006000094E8070098471034AC42F6D3FFF7D2FDC8
:10061000F4390008143A0008FEE70000014800F031
:100620007CB900009C000020014800F076B9000071
:100630009C0000207047704790F82020012A07D0C6
:10064000022A05D0416A41F48021416201207047AD
:10065000006842690A43426100207047F0B590F893
:1006600020500468A468012D05D0022D03D0416AF2
:1006700041F4802153E014F0406F01D1E5004BD5E7
:10068000C4F30164022C03D9416A41F4000146E03D
:100690000125A5401D608D684FF4C0739DB1CE68E3
:1006A00035434E6845EAC605066803EB0417F55165
:1006B0004FF4C275076805EB04150E697E51097D7C
:1006C000012905D009E00E88CD6845EA4655EBE7DB
:1006D00001684E5946F480764E511179D2F8055092
:1006E0004FF4C67641EA0525016806EB04168D51E4
:1006F0001178D2F801204FF4C47541EA0221026852
:1007000005EB04155151006803EB0411425842F007
:10071000010242500020F0BD416A41F400114162E3
:100720000120F0BD10B590F82020012A07D0022A40
:1007300005D0416A41F480214162012010BD3B484F
:10074000D0F8002242F00102C0F80022D0F80022C6
:1007500022F47C52C0F80022D0F800224B6A42EA10
:100760000322C0F800220A7D02F01F0301229A40F2
:10077000D0F81C329343C0F81C32CB69B3B9D0F81F
:100780000C329343C0F80C328C894B6864F31F43DE
:100790004C6900EBC404C4F840320C890B6864F364
:1007A0001F434C6900EBC404C4F84432CB69012BED
:1007B00016D1D0F80C321343C0F80C320C884B68B9
:1007C00064F31F434C6900EBC404C4F840320C8945
:1007D000CB6864F31F434C6900EBC404C4F8443293
:1007E0008B69002BD0F804320ED01343C0F80432CA
:1007F0000B69002BD0F8143208D01343C0F8143220
:10080000096A012904D008E09343EFE79343F5E731
:10081000D0F81C121143C0F81C12D0F8001221F0BD
:100820000101C0F80012002010BD0000006400406B
:10083000704730B590F82040012C05D0022C03D031
:10084000416A41F480215DE00468002955D02469A3
:10085000A40754D04FF4D874056804EB01142D5943
:1008600015F00405956005682D594ED0ED085560CA
:1008700005682C5904F00204D4604FF4DA7405685A
:1008800004EB01142D5905F00F05156105682D596C
:10089000C5F30725956105682C59240C54614FF464
:1008A000DC72046802EB0112A4581C700468A4589E
:1008B000240A5C700468A458240C9C700468A25834
:1008C000120EDA704FF4DE72046802EB0112A458C3
:1008D0001C710468A458240A5C710468A458240C90
:1008E0009C710468A258120EDA71006881B1016926
:1008F00041F020010161002030BDE468A8E7416AB1
:1009000041F400114162012030BD6D0D1560AFE76B
:10091000C16841F02001C160EDE72DE9F05F0546B7
:10092000006800244669D0F804908768D0F80CB0BD
:10093000D0F810A0D0F81880F10748D0F90714D0EB
:1009400001218160B80703D5284600F04EFA0CE07B
:10095000780702D54FF4006407E0380702D54FF45A
:10096000805402E0284600F03FFAF80516D52968C1
:100970004FF480708860B80503D5284600F037FA38
:100980000CE0780502D544F4005407E0380502D5A0
:1009900044F4804402E0284600F028FAF80316D513
:1009A00029684FF480308860B80303D5284600F0EA
:1009B00020FA0CE0780302D544F4004407E0380341
:1009C00002D544F4803402E0284600F011FA3007E2
:1009D00007D55FEACB6004D52968102044F4007481
:1009E000C86070074FF0080707D55FEA0B7004D5A1
:1009F0002868C760284600F09BF9B00706D528682C
:100A0000C068800702D0284600F094F9700607D528
:100A10005FEACA6004D52968102044F48064086144
:100A2000B00607D55FEA0A7004D528680761284632
:100A300000F0AAF9F00606D528680069800702D000
:100A4000284600F0A2F9B00308D55FEAC96005D5D1
:100A5000296810204860284600F098F9F00307D56F
:100A60005FEA097004D528684760284600F0C2F99B
:100A7000300446D55FEA497040D5F00504D55FEAF9
:100A8000C87001D044F00104B00504D55FEA887055
:100A900001D544F00204700504D55FEA487001D521
:100AA00044F00404300529D518F0700F26D008F062
:100AB0007000402815D006DC102809D020280AD064
:100AC000302816D10AE050280ED0602811D10EE04F
:100AD00044F008040DE044F010040AE044F020045F
:100AE00007E044F0400404E044F0800401E044F4F2
:100AF00080742868816921F070018161296804206F
:100B00004860002C05D0686A204368622846FFF7D9
:100B10008FFEBDE8F09F70B5040003D094F820006C
:100B200010B104E0012070BD204600F081F820687B
:100B3000016821F00201016000F064FA0546052613
:100B400004E000F05FFA401B0A2811D820684068D2
:100B50008007F6D42068016841F00101016000F0CF
:100B600051FA05460BE000F04DFA401B0A2806D961
:100B7000606A40F40030606284F82060D2E7206848
:100B80004068C007EFD0207E0128206801683DD072
:100B900021F080010160607E01282068016838D062
:100BA00021F040010160A07E01282068016833D057
:100BB00021F020010160E07E0128206801682ED02C
:100BC00041F010010160207F01282068016829D0D0
:100BD00021F008010160607F01282068016824D0AD
:100BE00021F004010160D4E902010843D4E90412B0
:100BF000114308436168491E08432168C861002009
:100C00006062012084F82000002070BD41F0800166
:100C1000C0E741F04001C5E741F02001CAE721F0FB
:100C20001001CFE741F00801D4E741F00401D9E712
:100C3000F0B587B0044614216846FFF77DFB374BBB
:100C40003748DFF8D4E01968D4F800C0344A0325E7
:100C50000226092710300024491CF4452DD11960C3
:100C6000012907D1016841F000710160006800F0BE
:100C700000700590106840F0080010601068CDE921
:100C8000005600F00800CDE9047069462548CDE91A
:100C9000024500F0C3F800220521132000F03EFABF
:100CA000132000F02DFA00220521142000F036FA5E
:100CB000142000F025FA07B0F0BDDFF86CE0F44531
:100CC000F9D1D0F800C04CF0806CC0F800C0D0F86A
:100CD00000C001290CF0806CCDF814C0196007D158
:100CE000016841F000710160006800F0007005903B
:100CF000106840F002001060106802AB00F00200C3
:100D000005904FF44050CDE9000683E8B0006946F5
:100D1000064800F083F8CEE70064004000000020A1
:100D200030380240000C02400068004000040240DD
:100D30007047000030B589B0054607AB6A46002110
:100D4000FFF777FD0E4CA54212D10098A0F20120CA
:100D500004280DD8009800EB400101EBC0000949C0
:100D600001EB8000A0F5B04007A92C3801F075FD1B
:100D70002068416941F00201416109B030BD0000C5
:100D80009C000020A043002070477047704700007F
:100D900070B5044690F82000012804D0606A40F441
:100DA0000020606218E0022084F8200020680168BA
:100DB00021F00101016000F025F905460EE000BFB9
:100DC00000F020F9401B0A2808D9606A40F400307E
:100DD0006062052084F82000012070BD2068406812
:100DE000C007EDD1606270BD7047704770477047B3
:100DF00070477047704790F83510022903D0802162
:100E0000416501207047052180F8351000680168B0
:100E100021F0010101600020704700002DE9F84F2A
:100E200000224FF0010803254FF00F0E0B6808FA5F
:100E300002F42340A3426ED14E68012E05D0022E4B
:100E400003D0112E01D0122E12D186684FEA420C27
:100E500005FA0CF7BE43CF6807FA0CF737438760F3
:100E60004668A6430C79C4F30014944034434460AC
:100E7000C668570005FA07FC8C6826EA0C06BC40D9
:100E80003443C4604C68022C01D0122C13D1D40816
:100E900000EB8404A346D4F8209054074FEAD46AA8
:100EA0000EFA0AF629EA06090E6906FA0AF646EA71
:100EB0000906CBF8206004680E7924EA0C0406F0D9
:100EC0000306BE40264306604C68E4006FD53B4CE9
:100ED000266846F480462660246822F0030604F45F
:100EE00080440094364C3444A446D4F8084896070D
:100EF000360F0EFA06F7BC43324FB84201D1002735
:100F00002EE0314FB84201D1012729E02F4FB842DE
:100F100002D1022724E04AE02D4FB84201D1032735
:100F20001EE02C4FB84201D1042719E02A4FB842E5
:100F300001D1052714E0294FB84201D106270FE05F
:100F4000274FB84201D107270AE0264FB84201D106
:100F5000082705E0244FB84201D1092700E00A27FD
:100F6000B7402743CCF80878204E34684F689C433C
:100F7000FF0300D51C4334601C4E361D34684F6897
:100F80009C43BF0300D51C433460184E08363468B8
:100F90004F689C43FF0200D51C433460134E0C364F
:100FA00034684F689C43BF0200D51C433460521C18
:100FB000102AFFF43BAFBDE8F88F00004438024030
:100FC00000300140000002400004024000080240DE
:100FD000000C0240001002400014024000180240C1
:100FE000001C02400020024000240240003C01405E
:100FF0000069084000D0012070470AB18161704744
:101000000904FBE7014880687047000010000020D9
:101010000248816802781144816070471000002006
:101020000B4810B5016841F400710160016841F49A
:1010300080610160016841F480710160032000F06B
:101040008DF8002000F006F800F03EF8002010BDFA
:10105000003C024010B5014688B00022192000F083
:101060005DF8192000F04CF813480024016841F0A5
:1010700001010160006805A900F0010006906846C2
:1010800000F050F900F07EF90C494000B0FBF1F19E
:101090000C480B4A491E026040F2E732C0E90324C3
:1010A000C0E9011400F0A8FB10B1012008B010BD88
:1010B000044800F0CFFBF9E74438024040420F00FB
:1010C00000000140400300200C4882B0016841F458
:1010D00080410160006800F4804000900748001FD4
:1010E000016841F0805101600068002200F08050EA
:1010F00000900F21901E02B000F010B8443802405A
:10110000002809DB00F01F02012191404009800006
:1011100000F1E020C0F8001170470000F0B40E4B61
:101120001B680C46C3F30223C3F10705042D00D945
:101130000425191D072901D2002300E0DB1E01262A
:1011400006FA05F1491E214099409E40761E164040
:101150003143F0BC01F04DBB0CED00E0064900F05E
:10116000070208684FF6FF03184040EA0220034ACE
:1011700010430860704700000CED00E00000FA0525
:101180002DE9F8431748016841F08051016000687B
:10119000154F00F08050012600903E64FFF732FFAB
:1011A00005464FF47A78114C05E000BFFFF72AFF9F
:1011B000401B40450DD86068C003F7D57E64FFF73B
:1011C00021FF0546464607E0FFF71CFF401BB042E3
:1011D00002D90320BDE8F88360688003F4D50020BD
:1011E000F8E700004038024000000E420070004066
:1011F0002DE9F0470E46050065D0DFF81481D8F8D8
:101200000000F7B200F00F00B04207D288F800707B
:10121000D8F8000000F00F00B04254D128683D4CCF
:10122000810712D5400703D5206840F4E0502060C4
:101230002878000703D5206840F4604020602068CB
:10124000A96820F0F000084320602878C0072DD05E
:10125000304968680839012812D0022813D00328C1
:1012600011D00968890700292DDA216821F00301CE
:1012700001432160FFF7C6FE814641F2883A0EE045
:1012800009688903EFE709688901ECE7FFF7BAFE0F
:10129000A0EB0901514502D90320BDE8F087206881
:1012A000696800F00C00B0EB810FEFD1D8F80010A6
:1012B000404601F00F01B14207D90770006800F005
:1012C0000F00B04201D00120E7E72878400705D59C
:1012D0002068E96820F4E05008432060287800077F
:1012E00006D52068296920F4604040EAC1002060EA
:1012F00000F058F82168084AC1F30311515CC84056
:101300000649086006480068FFF7A4FE0020C4E70D
:10131000003C024008380240B83900081C00002098
:10132000140000200F2202600C4A136803F003032C
:101330004360136803F0F0038360136803F4E05321
:10134000C36012684FF4E05303EAD202026104481A
:10135000006800F00F000860704700000838024085
:10136000003C02400448054900680968044AC1F38A
:101370008221515CC84070471C00002008380240A0
:10138000C83900080448054900680968044AC1F3DF
:101390004231515CC84070471C00002008380240B0
:1013A000C8390008154810B5006810F00C02144840
:1013B00013D01449042A0FD0082A0ED10F4C241F31
:1013C0002268236802F03F025B0207D52068C0F361
:1013D0008810A0FB010106E0084610BD2168C1F39A
:1013E0008811A1FB00010023FEF75CFF2168C1F317
:1013F0000141491C4900B0FBF1F010BD0838024022
:101400000024F400001BB7002DE9F84F040076D04B
:101410002078DFF838A3CE4DC00749D0DAF80010A5
:101420005046C1F38101012908D00068C0F3810052
:1014300002280AD1281D0068400206D528688003CA
:1014400036D560680028E2D032E06068B0F5803FB1
:1014500010D0B0F5A02F286810D020F4803028607C
:10146000286820F4802028606068A0B1FFF7CAFDDA
:1014700006460CE0286840F48030F4E740F4802011
:101480002860F7E7FFF7BEFD801B642873D8286843
:101490008003F7D50CE0FFF7B5FD064605E000BF79
:1014A000FFF7B0FD801B6428F0D828688003F7D4CC
:1014B0002078DFF8A08280074FF000093ED5DAF8E7
:1014C0000010504611F00C0F09D00068C0F38100E5
:1014D00002280BD19D48001F0068400206D42868EE
:1014E000800715D5E068012809D111E0E068B8B19E
:1014F0000120C8F80000FFF785FD064605E020E161
:10150000FFF780FD801B0228C0D828688007F7D528
:101510002868216920F0F80040EAC10028600DE049
:10152000C8F80090FFF76EFD064604E0FFF76AFD7D
:10153000801B02281FD828688007F7D4207800076E
:1015400022D5824E844861696C3671B101210160F7
:10155000FFF758FD074604E0FFF754FDC01B0228C3
:1015600009D830688007F7D50EE0C0F80090FFF783
:1015700049FD074605E082E0FFF744FDC01B022855
:101580007DD830688007F7D42078400768D5DFF829
:10159000BCB100270BF1380BDBF80000C0000BD406
:1015A000DBF8001041F08051CBF80010DBF80000B0
:1015B000012700F080500090684E3068C00510D4BC
:1015C000306840F480703060FFF71CFD009005E04B
:1015D000FFF718FD0099401A022850D83068C0055E
:1015E000F6D55A4EA068683601280FD00528306815
:1015F00010D020F001003060306820F0040030602E
:10160000A068B8B1FFF7FEFC00900FE0306840F032
:101610000100F4E740F004003060F7E7FFF7F2FC68
:101620000099411A41F28830814266D830688007BB
:10163000F4D50EE0FFF7E6FC009007E0FFF7E2FCD0
:101640000099411A41F28830814256D830688007AB
:10165000F4D42FB1DBF8001021F08051CBF800104A
:10166000A069D0B3DAF800205146C2F38102022A01
:101670004AD00228484607D0C8F8600000E03CE0A5
:10168000FFF7C0FC04463BE04746C8F86000FFF7A0
:10169000B9FC064605E000BFFFF7B4FC801B02283A
:1016A0002BD828688001F7D4D4E907010843A16A40
:1016B0002B4A490802EB0141626A41EA8211084360
:1016C00094F82C1040EA01612048001F01600120BD
:1016D0003866FFF797FC044605E034E0FFF792FC1C
:1016E000001B022809D828688001F7D52BE000BF2D
:1016F000FFF788FC001B022802D90320BDE8F88F01
:1017000028688001F4D41EE00128F7D00868E26957
:1017100000F48001914214D1226A00F03F0191420D
:101720000FD147F6C071626A0140914209D1A26AA5
:1017300000F44031914204D1E16A00F070608842C7
:1017400001D00120DAE70020D8E700000838024085
:101750000038024000004742800E474200700040BF
:101760000000FFFF7047704770B590F83C20012AD9
:1017700032D0012480F83C40022280F83D200368EA
:101780005A689D6822F070060A6832435A60134B0B
:1017900002689A4214D0B2F1804F11D0104B9A4295
:1017A0000ED0104B9A420BD00F4B9A4208D00F4BE1
:1017B0009A4205D00E4B9A4202D00E4B9A4204D167
:1017C000496825F080031943916080F83D4000216D
:1017D00080F83C10084670BD022070BD000001403A
:1017E0000004004000080040000C004000040140DC
:1017F000004001400018004010B5040003D094F8E8
:101800003D0010B107E0012010BD002084F83C002D
:10181000204600F00DF8022084F83D00211D2068CC
:1018200000F04AFD012084F83D00002010BD0000BA
:1018300008B50068B0F1804F08D10548016841F053
:1018400001010160006800F00100009008BD000087
:10185000403802400168CA6842F00102CA6000686C
:10186000816801F00701062903D0016841F00101F8
:1018700001600020704770B5044690F83C000128D4
:1018800017D0012584F83C50022084F83D002068E0
:10189000826822F0770222F47F4282600868502832
:1018A00030D00DDC20284DD005DC98B310283BD17A
:1018B00048E0022070BD302844D0402834D139E0BF
:1018C000602828D0702806D0B0F5805F2CD0B0F505
:1018D000005F29D10AE0CB68D1E90121206800F03E
:1018E0005CFD2068816841F0770109E0CB68D1E9AF
:1018F0000121206800F051FD2068816841F4804199
:10190000816011E0CA684968206800F01BFE502120
:10191000206807E016E0CA684968206800F023FEE6
:101920006021206800F043FD84F83D50002084F8D9
:101930003C0070BDCA684968206800F003FE402181
:101940002068EFE7226801461046EBE7704770B564
:101950000446006801694FF00005C943890715D4A2
:10196000C168C943890711D4E91E016101202077AC
:10197000206880698007204602D0FFF7E7FF04E077
:1019800000F0BEF8204600F040F925772068016994
:10199000C943490717D4C168C943490713D46FF035
:1019A00004010161022020772068806910F4407FE3
:1019B000204602D0FFF7CAFF04E000F0A1F820465D
:1019C00000F023F9257720680169C943090716D477
:1019D000C168C943090712D46FF0080101610420EE
:1019E00020772068C0698007204602D0FFF7AEFF4D
:1019F00004E000F085F8204600F007F9257720681C
:101A00000169C943C90617D4C168C943C90613D4BB
:101A10006FF010010161082020772068C06910F480
:101A2000407F204602D0FFF791FF04E000F068F805
:101A3000204600F0EAF8257720680169C943C90704
:101A400008D1C168C943C90704D1891E0161204674
:101A500000F0FEF820680169C943090609D4C1688D
:101A6000C943090605D46FF0800101612046FFF7E4
:101A700079FE20680169C943490609D4C168C94390
:101A8000490605D46FF040010161204600F0EAF8F4
:101A900020680169C94389060BD4C168C943890616
:101AA00007D46FF0200101612046BDE87040FFF7C8
:101AB0005ABE70BD10B586B0044614216846FEF7C4
:101AC0003BFC2068B0F1804F14D10B480021026824
:101AD00042F001020260006800F00100059002205F
:101AE0000090CDE901010120CDE9031069460348CA
:101AF000FFF794F906B010BD3038024000000240F4
:101B0000704770B5044690F83C000D4601280DD092
:101B1000012684F83C60022084F83D0042B1042A8A
:101B200018D0082A2AD00C2A4DD139E0022070BDE5
:101B3000206800F045FC2068816941F0080181615E
:101B40002068816921F004018161206881692A6926
:101B5000114311E0206800F063FC2068816941F4C2
:101B6000006181612068816921F480618161206860
:101B700081692A6941EA0221816124E0206800F03C
:101B800085FC2068C16941F00801C1612068C16914
:101B900021F00401C1612068C1692A69114311E083
:101BA000206800F0A7FC2068C16941F40061C161B0
:101BB0002068C16921F48061C1612068C1692A6916
:101BC00041EA0221C16184F83D60002084F83C00B4
:101BD00070BD10B5040003D094F83D0010B107E0CB
:101BE000012010BD002084F83C00204600F00CF8D5
:101BF000022084F83D00211D206800F05DFB0120DB
:101C000084F83D00002010BD7047704710B50446B1
:101C10000068012200F0B4FB0B492068884202D022
:101C20000A49884203D1416C41F400414164206873
:101C3000816801F00701062903D0016841F0010124
:101C40000160002010BD00000000014000040140C0
:101C500000680349884201D1FFF7DAB970470000F4
:101C6000000001407047704770B502680446106874
:101C7000D168536910F00F0F52D003F0010501F441
:101C800090762E435FD0C20705D0CA0503D5E26B1C
:101C900042F00102E263420705D5DA0703D0E26BA6
:101CA00042F00202E263820705D5DA0703D0E26B55
:101CB00042F00402E263020707D501F020022A4342
:101CC00003D0E26B42F00802E263E26B002A33D0F9
:101CD000800604D5880602D5204600F06CFC2068FA
:101CE0004069E16BC0F38010090700D428B3204697
:101CF00000F053FC2068416949061AD5416921F07A
:101D000040014161606BA0B11B490165606BFFF749
:101D100072F8002810D0606B016DBDE87040084774
:101D2000830610D58B060ED52046BDE8704000F026
:101D300042BC2046FFF797FF70BD2046FFF793FF98
:101D40000020E06370BD030606D50B0604D52046CF
:101D5000BDE8704000F00EBD4006F3D54806F1D551
:101D6000D168204621F04001D160202184F839104B
:101D700000F0B9F870BD00008B25000870B50400B4
:101D800004D094F83900002510B106E0012070BDA0
:101D900084F83850204600F023F8242084F83900D5
:101DA0002068C16821F40051C160204600F04EFC5B
:101DB0002068016921F4904101612068416921F0A6
:101DC0002A0141612068C16841F40051C160E563A6
:101DD000202084F8390084F83A00002070BD00000B
:101DE000F0B587B0044614216846FEF7A5FA3748D7
:101DF000354F25683549143802220123032407266C
:101E0000BD421DD10D6845F010050D60096801F057
:101E100010010591016841F0020101600068694606
:101E200000F002000590C0208DE85D002848FEF714
:101E3000F5FF002205212520FFF770F9252040E05D
:101E4000244FBD421AD12149091F0D6845F40035C0
:101E50000D60096801F400310591016841F0080145
:101E600001600068694600F00800059060208DE878
:101E70005D001948FEF7D2FF07B0F0BD174EB5421E
:101E8000FAD10D6845F020050D60096801F02001C8
:101E90000591016841F0400101600068694600F069
:101EA000400005904FF484408DE81D000820049008
:101EB0000B48FEF7B3FF002205214720FFF72EF95C
:101EC0004720FFF71DF9D7E70010014044380240D2
:101ED0000004024000440040000C02400014014095
:101EE0000018024070477047FEE700000F4810B529
:101EF0000D4901600521416000214FF400328160ED
:101F0000C0E90312520142610176012242768176D4
:101F1000C17601774177FEF7FEFD002803D0BDE8CA
:101F20001040FEF788BB10BD006400409C000020FC
:101F30000F4810B50D4901600521416000214FF4A3
:101F400000328160C0E90312520142610176012230
:101F500042768176C17601774177FEF7DCFD002875
:101F600003D0BDE81040FEF766BB10BD006800401E
:101F7000C400002010B596B01C2211496846FEF737
:101F8000C2F90021684600F0DDFD0E4C0C491C2210
:101F9000A0601C3107A8FEF7B6F9002107A800F0E1
:101FA000D1FD074920601C2238310EA8FEF7ABF99D
:101FB00000210EA800F0C6FD606016B010BD000044
:101FC000643900080400002070B586B0142168460A
:101FD000FEF7B2F926480024016841F04001016093
:101FE000016801F040010591016841F001010160C3
:101FF000016801F001010591016841F002010160F1
:10200000016801F002010591016841F008010160D9
:10201000016801F008010591016841F0800101604B
:10202000016801F080010591016841F02001016023
:102030000068104E00F020004FF48045059000220B
:1020400029463046FEF7D9FF2811CDE9000469463C
:1020500009480294FEF7E2FE01200095CDE9010453
:10206000694630460394FEF7D9FE06B070BD000005
:102070003038024000140240000C024010B58EB00F
:1020800000240794089409940A940B941C21684630
:102090000C94FEF751F91F484FF08041016040F267
:1020A0002B11C0E9011440F2E731C0E90314846147
:1020B000FFF7A2FB08B1FEF7BEFA4FF4805007907D
:1020C00007A91448FFF7D7FB08B1FEF7B4FA114887
:1020D000FFF77FFD08B1FEF7AEFA0B940BA90D4890
:1020E0000C94FFF741FB08B1FEF7A5FA60200090C1
:1020F0004FF4C870CDE901040422694605480494F0
:10210000FFF7FFFC08B1FEF796FA0248FFF7D2FC92
:102110000EB010BD800300200C4810B50A490160C4
:102120004FF4E1314160002181600C22C160C0E9BF
:1021300004128161C161FFF721FE002803D0BDE8D0
:102140001040FEF778BA10BD00100140C003002017
:102150000C4810B50A4901604FF4E131416000219B
:1021600081600C22C160C0E904128161C161FFF786
:1021700005FE002803D0BDE81040FEF75CBA10BD94
:1021800000440040000400200C4810B50A490160DA
:102190004FF4E1314160002181600C22C160C0E94F
:1021A00004128161C161FFF7E9FD002803D0BDE899
:1021B0001040FEF740BA10BD00140140400400205A
:1021C000FEE7704730B4024C446630BC00F0C6BD38
:1021D0005D2D0008012000F0A9FCFBE710B55020A0
:1021E00080F31188BFF34F8FBFF36F8F01F0F4FAC4
:1021F00018B104494FF080500860002080F3118826
:1022000010BD000004ED00E030B593B03021684609
:10221000FEF792F814210CA8FEF78EF81A48002554
:10222000016841F080510160006800F08050119019
:102230001648016841F4404101600068022400F43E
:102240004040119001200090000401908001CDE9F0
:10225000064006200890B420CDE9090404200B9024
:102260006846FFF7D1F8FEF78BFF0CA90F2081E835
:1022700031004FF4A0500F90E002109005210CA8FF
:10228000FEF7B6FF13B030BD40380240007000408A
:102290000548016841F47001016003494FF0006096
:1022A000803908607047000088ED00E00148FFF7C2
:1022B0004EBB000040030020F0B50268254C264DBF
:1022C000264E274F274B4FF0804CA04209D0604547
:1022D00007D0A84205D0B04203D0B84201D09842FE
:1022E00004D122F0700E4A6842EA0E02A0421BD0CE
:1022F000604519D0A84217D0B04215D0B84213D0CB
:10230000984211D0184DA8420ED0184DA8420BD0BB
:10231000174DA84208D0174DA84205D0164DA84227
:1023200002D0164DA84203D122F44075CA682A4350
:102330004D6922F080022A4302608A68C2620A68FC
:102340008262A04201D0984201D109690163012152
:102350004161F0BD00000140000400400008004061
:10236000000C0040000401400040014000440140D6
:102370000048014000180040001C004000200040C0
:1023800010B501F01F030121046A99408C430462D7
:10239000016A9A401143016210BD10B5846842EA97
:1023A000032224F47F440A432243826010BD8268E2
:1023B00022F070020A4342F007018160704700007A
:1023C000F0B5026A22F001020262036A426884697F
:1023D000124E24F073050C682C4323F002058B6821
:1023E0002B430D4DA84201D0B04205D123F0080780
:1023F000CB683B4323F00403A84201D0B04205D18F
:102400004D6922F4407215438A692A43426084610F
:10241000496841630362F0BD0000014000040140CF
:10242000F0B5026A22F010020262026A436884690F
:102430000D6824F4E64444EA05248D6822F0200265
:1024400042EA05120F4D104EA84201D0B04206D10B
:10245000CF6822F0800242EA071222F04002A8422E
:1024600001D0B04207D14D6923F4406343EA8503AC
:102470008D6943EA85034360846149688163026230
:10248000F0BD00000000014000040140F0B5026A08
:1024900022F480720262026A4368C46922F4007204
:1024A00024F073050C68124E2C438D6842EA052215
:1024B0000E4DA84201D0B04206D1CF6822F400628E
:1024C00042EA072222F48062A84201D0B04207D13A
:1024D0004D6923F4405343EA05138D6943EA05131C
:1024E0004360C4614968C1630262F0BD00000140FD
:1024F0000004014030B5026A22F480520262046A8C
:102500004268C3690D6823F4E64343EA05238D68F6
:1025100024F4005444EA0534084DA84202D0084D82
:10252000A84204D14D6922F4804242EA85124260F9
:10253000C36149680164046230BD000000000140CD
:102540000004014010B5036A046A24F00104046227
:10255000846924F0F00444EA021423F00A020A43D6
:102560008461026210BD10B5036A23F01003036298
:102570008369046A23F4704343EA023224F0A0031F
:1025800043EA01118261016210BD10B5806B002128
:10259000C185C184FFF767FB10BD0168CA6822F4DA
:1025A0009072CA6001684A6922F001024A612021E2
:1025B00080F83A10704710B590F83A10222901D0EF
:1025C000022010BD8168B1F5805F11D0016900293A
:1025D00001681FD0496801F07F03816A4A1C82624A
:1025E0000B70C18D491E0904090CC18518D02BE060
:1025F0000269816A002A0268526805D0D2B20A8054
:10260000816A491C8162ECE7C2F308020A80816A90
:10261000891CF7E74A68816A4B1C83620A70E0E70D
:102620000168CA6822F02002CA600168CA6822F400
:102630008072CA6001684A6922F001024A61202161
:1026400080F83A10FFF74EFC002010BD2DE9F04154
:10265000044600680169E26821F4405111430161B8
:102660002169A068E2690843616911430843216850
:10267000CA6849F20C639A430243CA602068416900
:10268000A26921F4407111434161E0691927642571
:102690003226B0F5004F354A354920684FF0000822
:1026A00006D0884201D0904236D1FEF76BFE35E06D
:1026B000884201D0904202D1FEF764FE01E0FEF7AD
:1026C00051FE61684A18A0FB070148EB0803FDF7BB
:1026D000E9FD0146B0FBF5F00201B1FBF5F06FF04A
:1026E0001803584301EB800006EBC000B0FBF5F087
:1026F00000F0F80002EB4002B1FBF5F0584301EBAB
:10270000800006EBC000B0FBF5F000F00700216888
:1027100010448860BDE8F081FEF724FE61688B0FED
:102720008A00A0FB0701FDF7BDFD0146B0FBF5F0F7
:102730006FF01802504301EB800006EB0010B0FB75
:10274000F5F000F0F002B1FBF5F002EB0012B1FB86
:10275000F5F06FF01803584301EB800006EB001012
:10276000B0FBF5F000F00F00D1E7000000140140CD
:102770000010014090F83910212901D00220704743
:102780008168B1F5805F016A0BD04A1C0262026861
:1027900009785160C18C491E0904090CC1840ED00E
:1027A00017E009880268C1F3080151600169002936
:1027B000016A02D0491C0162ECE7891CFBE7016851
:1027C000CA6822F08002CA600068C16841F0400116
:1027D000C1600020704700000148FFF745BA0000C3
:1027E000C00300200148FFF73FBA0000400400206A
:1027F000FEE70907090E002804DB00F1E02080F85D
:102800000014704700F00F0000F1E02080F8141D64
:10281000704702E008C8121F08C1002AFAD17047A9
:102820007047002001E001C1121F002AFBD1704750
:10283000D0ED000AF4EEC00AF1EE10FA01DD80EDF1
:10284000000AD0ED000AB1EE400AF4EEC00AF1EE43
:1028500010FA01D280ED000A704710B50489448156
:102860000A8852BA02814B885BBA438003808B8806
:102870005BBA838089798171111BB1F5805F02DDBC
:102880000169491E04E011F5805F02DA0169491C03
:10289000016110BDFEF7C4FBFFF7B6FCFFF794FB28
:1028A000FFF724FBFFF744FBFFF7E8FBFFF734FCDF
:1028B000FFF74EFCFFF768FC00F038FDFFF75AFB0E
:1028C00000F03BF9FEE701460020842900D0C81C37
:1028D000704700002DED028B82B000249FED858AA9
:1028E000DFED858A854E4FF47A5500BF04EB8400F6
:1028F00000EBC40006EBC000B0EE481AF0EE680A28
:10290000B3EE090A2A462B460321FFF75BFC641C41
:10291000042CEBDB7A4FDFF8ECB17B4DDFF8EC9168
:102920004FF4806A4FF000087948FEF703FA00245C
:1029300055F8240000EE100A04EB440000EBC4003C
:10294000F8EEC00A37F9200000EE100A04EB84000C
:1029500000EBC400B8EEC00A06EBC00000F01CF9A2
:10296000641C042CE4DB96ED5D0A4FF40071BDEEAF
:10297000C00A10EE100A00B2CDE9000196ED430A3C
:10298000BDEEC00A10EE100A96ED290A03B2BDEEA4
:10299000C00A10EE100A96ED0F0A02B2BDEEC00A90
:1029A00010EE100A01B25A4800F09AFCD9F808005B
:1029B0004C4620B101280AD002281AD112E0514613
:1029C0005846FEF715FBA0B90120A06011E0514662
:1029D0005846FEF70DFB50B90220A060E068401C8D
:1029E000E06006E051465846FEF702FB08B1C4F825
:1029F0000880E0680A2801DDC4F80C804548B0F979
:102A0000021000EE101AB8EEC01A9FED430AC1EE94
:102A1000000A9FED421A60EE818AC4ED048AB0F983
:102A2000001000EE901AF8EEE00A80EE801A9FED9A
:102A30003C0A21EE008A84ED058AB0F91800FDF702
:102A4000F8FC9FED381B53EC112BFDF780FCFDF7D4
:102A500001FD00EE100A84ED060A207834283FD0EC
:102A600035283DD078EE680AE068401C30EEC01A88
:102A700000EE900AF8EEE00A61EE200AFDEEE00AB0
:102A8000C5ED000A78EE880A30EEC01A00EE900A12
:102A9000F8EEE00A61EE200AFDEEE00AC5ED010A5B
:102AA00078EE280A30EE801A00EE900AF8EEE00A7E
:102AB00061EE600AFDEEE00AC5ED020A78EEC80A92
:102AC00070EEC00A00EE100AB8EEC00A20EE800ACE
:102AD000BDEEC00A85ED030A012000F027F823E7C8
:102AE000C5F80C80C5F80880C5F80480C5F80080DA
:102AF000F2E7000000000000CDCC4C3D704100200A
:102B0000A0430020000C0240A844002080000020C8
:102B10009C0000208E440020000025440000484412
:102B2000000048C4CDCCCCCCCCCC144010B500B9FE
:102B3000012000F0EDFC002010BD10B500F00EFDEE
:102B4000002010BD7FB50D4604464169B0F908006C
:102B500081B1A16971B1FFF7B6FED4E905128DE824
:102B60000700D4E900102B46226900F00AFE03900A
:102B700004B070BDFFF7A7FE03A9CDE90001208ACC
:102B80002B4682B2D4E9001000F0CEFD012801D01E
:102B90000020EDE70398EBE700B530EEC01A80EDBA
:102BA000080AC0ED050A80ED0B1AD0ED141A014693
:102BB0009FED692A30EEC00AF5EEC01AB1EE400A68
:102BC000F1EE10FA0ED0B5EEC01AF1EE10FA02DDF9
:102BD000F0EE410A01E0F0EE400AF4EEE10AF1EE17
:102BE00010FA12DCD1ED150AF5EEC00AF1EE10FA7A
:102BF0000ED0B5EEC01AF1EE10FA01DDB0EE410ACA
:102C0000B4EEE00AF1EE10FA02D2B0EE420A00BDD4
:102C1000886D01F13402032802D0042838D07AE00C
:102C200091ED000A104620EE010A81ED0C0A91EDAB
:102C30000D0AD1ED010A00EE810A81ED0D0A91ED38
:102C40000A0AD1ED020A31EE400A20EE200A81ED97
:102C50000E0A91ED180AB8EE400AFFF7E9FD91ED72
:102C60000C0AD1ED0D0A01F13C0030EE200AD1ED45
:102C70000E0A30EE200A81ED0F0A91ED170AB8EE28
:102C8000400AFFF7D5FD91ED0F0A81ED100A42E0F1
:102C900091ED0A0AD1ED001A104671EE400A60EE7D
:102CA000A10AC1ED0C0AD1ED010A60EE810AC1ED65
:102CB0000D0AF0EE000A00EE601A91ED090AD1ED5E
:102CC000020A31EE000A20EE200A81ED0E0A91ED93
:102CD000180AB8EE400AFFF7ABFD91ED0C0AD1EDF2
:102CE0000D0A01F1480030EE200AD1ED0E0A30EE57
:102CF000200A81ED110AD1ED130A30EE800A81ED30
:102D0000120A91ED170AB8EE400AFFF791FD91ED16
:102D1000120A81ED130A91ED0A0A81ED090A91ED7B
:102D20000B0A81ED0A0A91ED070A81ED060A91ED81
:102D3000080A81ED070A91ED040A81ED030A91ED7D
:102D4000050A81ED040A886D032802D091ED120A6C
:102D500000BD91ED0F0A00BD0000000000F1580C0D
:102D60008CE80E0080EC030A704700002DE9F0416A
:102D7000184C0F46054666692068001D00F004FBEC
:102D800038B9206890F82C1001208840A16981434F
:102D9000A161681C07D137B12168BDE8F0410E4838
:102DA000091D00F035BB20683544B54245602168F7
:102DB00005D2A068BDE8F041091D00F011BB6068B4
:102DC000091D00F00DFB206B854200D22563BDE894
:102DD000F0810000200000205C0500202DE9F0417A
:102DE000054600F021FB2E4C2069401C2061206824
:102DF0002C4F10B1E06940B32DE025602069012817
:102E000029D1002606EB860007EB800000F0DAFAF5
:102E1000761C072EF6D323488C3000F0D3FA2148D5
:102E2000A03000F0CFFA1F48B43000F0CBFA1D48B4
:102E3000C83000F0C7FA1B48DC3000F0C3FA19486C
:102E40008C3060601430A06005E02068E96AC06AD8
:102E5000884200D82560E06A401CE062E96A0120EF
:102E6000A26988401043A06101EB810007EB80005C
:102E7000291D00F0CDFA00F0F7FAE06900280CD027
:102E80002068E96AC06A884207D207494FF080503B
:102E90000860BFF34F8FBFF36F8FBDE8F081000074
:102EA000200000208004002004ED00E010B504465E
:102EB00090F8510058B101280CD002280FD05020B2
:102EC00080F31188BFF34F8FBFF36F8FFEE7206B46
:102ED00000F0DEFA2046BDE8104000F0D9BA10BD7F
:102EE00010484FF47051420706D0C01D0D4920F024
:102EF0000700411AC1F570510B4A00230144C2E991
:102F000000030839103A21F0070111604B600B6093
:102F10000B1AC0E9001393604FF000405360D0607B
:102F200070470000700500206C000020144E154C06
:102F3000A6F1C8074FF08058DFF84C9012E000BFB0
:102F400000F072FAF068C568281D00F01DFA2069CB
:102F5000401E2061E068401EE06000F085FA2846CF
:102F6000FFF7A4FFE0680028EAD138680128F9D902
:102F7000C9F80080BFF34F8FBFF36F8FF2E70000F7
:102F8000480500202000002004ED00E02DE9F04776
:102F90009A46DDE9098481466FF00303206B03EB59
:102FA00082021044089D20F00706700707D05020C9
:102FB00080F31188BFF34F8FBFF36F8FFEE72318A5
:102FC0000A5C83F834200A5C12B1401C1028F6D346
:102FD000002784F84370072D00D30625E562C4E975
:102FE0001157201D00F0F9F904F1180000F0F5F96F
:102FF0002461C5F107006462A061E76484F8507041
:1030000052464946304600F0BFF82060B8F1000F44
:1030100001D0C8F80040BDE8F087000030B5114984
:1030200000E011460A688242FBD34B685C18844278
:1030300003D1406818444860084643681C1894420D
:1030400009D1084C103C2468A24209D052681A44A5
:1030500042600A6812680260814200D0086030BD98
:103060000460F9E76C00002006484168096829B14E
:103070004168C968C9684968016370474FF0FF310A
:10308000FAE700002000002008484068401C4FF08C
:10309000500080F3118804D0BFF34F8FBFF36F8FC0
:1030A000FEE7BFF34F8FBFF36F8FFEE77400002082
:1030B0002DE9F0410546002700F086FA314E3068D0
:1030C00008B9FFF70DFFF06805424BD1C5B30835CD
:1030D00068070ED005F00700C0F108000544680736
:1030E00007D0502080F31188BFF34F8FBFF36F8F4D
:1030F000FEE72DB37068854234D82248103001466F
:103100000C6801E020460C466168A94202D22168A1
:103110000029F7D131688C4224D00768216801600A
:1031200060680837411B10290FD96019420708D081
:10313000502080F31188BFF34F8FBFF36F8FFEE7EE
:1031400010E041606560FFF769FF61687068401AD0
:103150007060B268904200D2B060F0680143002015
:10316000C4E9000100F09CFB780707D0502080F3F1
:103170001188BFF34F8FBFF36F8FFEE73846BDE86E
:10318000F08100005C00002010B5031F4FF0807438
:103190001C601B1F21F001011960191F044B0B60FB
:1031A00014390A60091F6FF0020244380A6010BD2A
:1031B000893000081CB5DFF80481DFF80491002590
:1031C00040F2FF1498F800004646372815D03828FA
:1031D00013D0392811D0706801280ED00421384846
:1031E000FEF714FDD9F80000C82181630023CDE962
:1031F00000541A46194633485AE004213048FEF775
:1032000005FDD9F800004FF4487181633078392802
:1032100002D0706801284DD14FF4FA70FFF786FC98
:103220002848FDF787FD284EDFED280A36F9B00F54
:1032300000EE100A2648B8EEC00A8246FFF7ACFC42
:10324000244FCDE9005497ED770A00231A46BDEECE
:10325000C00A10EE100A01B21A4800F041F86420CA
:10326000FFF764FCB6F90000DFED1B0A00EE100A60
:103270005046B8EEC00AFFF78FFC4FF47A70FFF7A4
:1032800055FCB6F90000DFED150A00EE100A5046B5
:10329000B8EEC00AFFF780FCCDE9005497ED770A3D
:1032A00000231A46BDEEC00A10EE100A01B205480E
:1032B00000F016F80120FFF739FC83E780000020BA
:1032C000800300209C000020A04300200000C84391
:1032D0001043002070410020000000000000C8C31F
:1032E00030B589B0DDE90C450295002504950595BA
:1032F000082506950D0A8DF800508DF80110110A69
:103300008DF80210190A8DF804108DF80530210A85
:103310008DF806108DF803208DF8074008AB6A463B
:1033200002A9FDF79BF909B030BD000070B5134C40
:103330000025012065612062C4E9065025606560B2
:10334000A560E56021460E482561FDF7EBF90C48C4
:10335000FDF71EFD02210A48FDF76EF90E2065619A
:10336000606221460748FDF7DDF90648FDF710FDCC
:10337000BDE8704002210348FDF75EB978430020A4
:103380009C000020C4000020D0E9013201699A604D
:10339000D0E901235A604A68824201D182684A60BA
:1033A000002202610868401E08600868704700003B
:1033B000034B036003F154000860802010607047E5
:1033C000EC00002000F108014FF0FF32C0E90112CB
:1033D000C1600161002101607047002101617047F7
:1033E00030B50B685A1C02D000F1080202E00269F5
:1033F00004E02246546825689D42FAD953684B6020
:1034000099608A60516008610168491C016030BDA3
:1034100042684A6093688B60936859609160086164
:103420000168491C01607047502080F31188BFF388
:103430004F8FBFF36F8F0A494868401C48600128CE
:103440000CD10848006810F0FF0F07D0502080F31F
:103450001188BFF34F8FBFF36F8FFEE770470000F7
:103460007400002004ED00E00849486828B1401EBF
:10347000486001D180F311887047502080F3118893
:10348000BFF34F8FBFF36F8FFEE700007400002083
:1034900070B5002827D0144DA0F108046168E868D1
:1034A000014207D1502080F31188BFF34F8FBFF343
:1034B0006F8FFEE722683AB1502080F31188BFF386
:1034C0004F8FBFF36F8FFEE78143616000F07CF8A0
:1034D00060686968084468602046FFF79FFDBDE8A2
:1034E000704000F0DDB970BD5C0000204FF0E020BE
:1034F00000210161816105494FF47A720968B1FBCD
:10350000F2F1491E41610721016170471C00002052
:1035100010B5020014D00F48806B38B1502080F3F2
:103520001188BFF34F8FBFF36F8FFEE700F04CF8A9
:1035300000211046FFF71AFC00F0B2F9002807D16D
:1035400005494FF080500860BFF34F8FBFF36F8F76
:1035500010BD00002000002004ED00E010B586B092
:103560000024039405AA04A903A80494FFF720FFEC
:10357000DDE903010094CDE9011000230EA11048FC
:10358000059A00F0FEF80F490028486311D050203A
:1035900080F31188BFF34F8FBFF36F8F4FF0FF3071
:1035A00008630120C8614C6106B0BDE8104000F01E
:1035B00041B806B010BD000049444C450000000071
:1035C0002D2F0008200000200248816B491C8163D8
:1035D00070470000200000201448816B11B10121C8
:1035E00041627047002141628169B1FA81F1C1F104
:1035F0001F0101EB81020E4951F822306BB101EB42
:10360000820101F108034A6852684A609A4201D176
:1036100052684A60D16801607047502080F3118879
:10362000BFF34F8FBFF36F8FFEE700002000002035
:10363000800400201CB537480168374A914207D101
:10364000502080F31188BFF34F8FBFF36F8FFEE7D9
:1036500000683149491E884207D1502080F3118803
:10366000BFF34F8FBFF36F8FFEE72C4908780190AF
:10367000FF20087008788DF800009DF800009DF884
:10368000002000F0F000904207D0502080F3118815
:10369000BFF34F8FBFF36F8FFEE79DF80000204B05
:1036A00000F0500018700720986005E09DF8002099
:1036B00052008DF80020401E9DF800201206F5D41F
:1036C0009860032807D0502080F31188BFF34F8FF4
:1036D000BFF36F8FFEE74FF4407098600198087059
:1036E0000C482030016841F470010160016841F02C
:1036F00070410160FFF7FAFE00205860FCF784FD7E
:103700000848016841F040410160FCF769FD002074
:103710001CBD000000ED00E071C20F4100E400E0BC
:103720007400002034EF00E02DE9FF5F8346DDE9FF
:103730000E87994616468A469000FFF7B9FC0500A9
:103740001CD05420FFF7B4FC040014D000202563E3
:1037500084F85100CDE90240CDE900874B4632465E
:1037600051465846FFF712FC2046FFF737FB012071
:1037700004B0BDE8F09F2846FFF78AFE4FF0FF3007
:10378000F6E7F0B585B0DDE90B640A9DA6B1DCB1C2
:10379000542700972663022684F85160002604AF60
:1037A000CDE90246CDE90057FFF7F0FB2046FFF7D1
:1037B00015FB049805B0F0BD502080F31188BFF3CD
:1037C0004F8FBFF36F8FFEE7502080F31188BFF358
:1037D0004F8FBFF36F8FFEE72DE9F0412E4C00278E
:1037E000A06B40B1206A401C2062606A00B10127D2
:1037F0003846BDE8F0816669761C666113D1606861
:10380000006838B1502080F31188BFF34F8FBFF3A9
:103810006F8FFEE76068A1686160A060A06A401CCD
:10382000A062FFF721FC206BDFF87080864209D38D
:103830006068006880B16068C068C5686868864272
:103840000DD220632068C06A00EB800158F8210087
:103850000128CAD90127C8E74FF0FF30F1E7281D3A
:10386000FFF792FDA86A18B105F11800FFF78CFD6B
:10387000E86A0121A26981401143A16100EB800146
:1038800008EB8100291DFFF7C3FDE86A2168C96ABA
:103890008842CDD30127CBE7200000208004002000
:1038A0002DE9F0472C4D00242746A86B38B1FFF7CF
:1038B000BBFDA86B401EA863A86B40B146E050203A
:1038C00080F31188BFF34F8FBFF36F8FFEE7296935
:1038D000224E0120D1B3A6F1B40980463068E8B188
:1038E000F068C46804F11800FFF74EFD201DFFF7D3
:1038F0004BFDE06AAA6908FA00F11143A96100EBE7
:10390000800109EB8100211DFFF782FDE06A296833
:10391000C96A8842E2D3C5F82480DFE70CB1FFF71B
:10392000A3FB2C6A44B14646FFF756FF00B16E6216
:10393000641EF9D100202862686A38B1084901275D
:1039400038070860BFF34F8FBFF36F8FFFF78CFD11
:103950003846BDE8F0870000200000203405002034
:1039600004ED00E0E8390008D5210008000000005F
:1039700000000000800000000000000000000000C7
:10398000DC390008D5280008000000000000000015
:10399000800000000000000000000000D039000896
:1039A000B5310008000000000000000080000000A9
:1039B0000000000000000000000000000000000007
:1039C00001020304060708090000000001020304C5
:1039D0007265736375655461736B00006D6F766516
:1039E0005461736B0000000064656661756C74540B
:1039F00061736B00143A0008000000209C00000076
:103A000012280008B03A00089C000020244800005A
:103A10002228000800000000000000000000000054
:103A20000000000001000000100000000000000085
:103A30000024F4000000000000000000000000006E
:103A40000000000000000000000000000000000076
:103A50000000000000000000000000000000000066
:103A60000000000000000000000000000000000056
:103A70000000000000000000000000000000000046
:103A8000000000000000000000000000AAAAAAAA8E
:103A900000000000310000000100000000000000F4
:103AA0000000000000000000000000000000000016
:04000005080001AD41
:00000001FF
